:020000040800F2
:10000000F81D0020D1010008E10400089D0300084C
:10001000DD04000881020008530900080000000008
:10002000000000000000000000000000B50600080D
:10003000850200080000000091060008A1070008E2
:10004000EB010008EB010008EB010008EB010008E0
:10005000EB010008EB010008EB010008EB010008D0
:10006000EB010008EB010008EB010008EB010008C0
:10007000EB010008EB010008EB010008EB010008B0
:10008000EB010008EB010008EB010008EB010008A0
:10009000EB010008EB010008EB010008EB01000890
:1000A000EB010008EB010008EB010008EB01000880
:1000B000EB010008EB010008EB010008EB01000870
:1000C000EB010008EB010008EB010008EB01000860
:1000D000EB0100086D080008EB010008EB010008C7
:1000E000EB010008EB010008EB01000800F002F84A
:1000F00000F05EF80AA090E8000C82448344AAF164
:100100000107DA4501D100F053F8AFF2090EBAE861
:100110000F0013F0010F18BFFB1A43F0010318473B
:10012000A8090000C809000010F8013B0A4413F0B8
:10013000030408BF10F8014B1D1108BF10F8015B44
:10014000641E05D010F8016B641E01F8016BF9D133
:10015000002D15D010F8014B03F00C030C2BA1EB74
:1001600004040ABF10F8013BA4EB8314A4EB03249E
:1001700005F1010314F8016B5B1E01F8016BF9D561
:10018000914238BF10F8013BD1D3704700230024BF
:1001900000250026103A28BF78C1FBD8520728BF97
:1001A00030C148BF0B6070471FB51FBD10B510BDF3
:1001B00000F033F81146FFF7F7FF00F0DBFB00F02B
:1001C00051F803B4FFF7F2FF03BC00F0C4FB0000DA
:1001D0000948804709480047FEE7FEE7FEE7FEE7DB
:1001E000FEE7FEE7FEE7FEE7FEE7FEE70448054917
:1001F000054A064B704700000D080008ED00000896
:10020000F8170020F81D0020F8190020F819002028
:1002100070477047704770477047754600F02CF87C
:10022000AE4605006946534620F00700854618B0E3
:1002300020B5FFF7DBFFBDE820404FF000064FF090
:1002400000074FF000084FF0000B21F00701AC460B
:10025000ACE8C009ACE8C009ACE8C009ACE8C0092A
:100260008D46704710B50446AFF300802046BDE8C8
:100270001040FFF7A6BF0000004870479817002005
:1002800000BFFEE770472DE9F04102460025002639
:10029000002000230024002791F803C00CF00F0574
:1002A00091F803C00CF0100CBCF1000F03D091F8D2
:1002B00002C04CEA050591F800C0BCF1000F31D036
:1002C000146800202BE04FF0010C0CFA00F3B1F899
:1002D00000C00CEA03069E4220D183004FF00F0CB1
:1002E0000CFA03F7BC4305FA03FC4CEA040491F84A
:1002F00003C0BCF1280F06D14FF0010C0CFA00FC32
:10030000C2F814C00AE091F803C0BCF1480F05D14F
:100310004FF0010C0CFA00FCC2F810C0401C082879
:10032000D1D31460B1F800C0BCF1FF0F34DD5468C4
:1003300000202EE000F1080C4FF0010808FA0CF341
:10034000B1F800C00CEA03069E4221D183004FF0B1
:100350000F0C0CFA03F7BC4305FA03FC4CEA040447
:1003600091F803C0BCF1280F05D100F1080C08FA80
:100370000CF8C2F8148091F803C0BCF1480F07D103
:1003800000F1080C4FF0010808FA0CF8C2F81080D0
:10039000401C0828CED35460BDE8F08100BFFEE7C2
:1003A00008B50121042000F075F910208DF8030034
:1003B0004020ADF8000003208DF80200694608488F
:1003C000FFF761FF14208DF803008020ADF80000D6
:1003D00003208DF8020069460148FFF754FF08BD6D
:1003E0000008014010B501200B490860052000F00D
:1003F000B5FA00200949C1F89801052000F0AEFACD
:1004000001200649C1F898010846D0F81C0108B13E
:10041000012010BD0020FCE79C0121420000214288
:1004200070B50446002500BF1AE00020104908609E
:1004300004F0800018B10120091D086003E00020CD
:100440000B49091D08606006040E052000F086FABD
:10045000012007490860052000F080FA681CC5B239
:10046000082DE2DB002002490860FFF7BBFF70BDEA
:100470009801214210B50120094908600949C1F8D5
:100480009C01052000F06AFA00200549091D08605A
:10049000052000F063FA00200249C1F8980110BD60
:1004A000980121420000214210B50020094908604E
:1004B00001200949C1F89C01052000F04FFA0120F4
:1004C00004490860052000F049FA00200249C1F8FB
:1004D0009C0110BD980121420000214200BFFEE7AF
:1004E000704770B506460024002500BF15E004F1F2
:1004F000B001C8B200F014F8002000F011F810208C
:1005000000F00EF8002504E0304600F0B1F8681C59
:10051000C5B2802DF8DB601CC4B2082CE7DB70BDCF
:1005200010B50446FFF7A6FF7820FFF779FF0020FB
:10053000FFF776FF2046FFF773FFFFF7B5FF10BD0B
:1005400070B505460C4605F1B001C8B2FFF7E8FFEB
:10055000102101EB1410FFF7E3FF04F00F00FFF789
:10056000DFFF70BD2DE9F04706460C4690469946E0
:10057000DDF820A00025002700BF13E008EB0501EF
:10058000C8B24946FFF7DCFF002707E006FB05710C
:100590001AF8010000F06CF8781CC7B2B742F5DB1E
:1005A000681CC5B2E11704EB5171B5EBE10FE5DB57
:1005B000BDE8F08710B5FFF7F3FEAE20FFF7B0FF00
:1005C0000220FFF7ADFF1020FFF7AAFF4020FFF742
:1005D000A7FF8120FFF7A4FFCF20FFF7A1FFA120F5
:1005E000FFF79EFFC820FFF79BFFA620FFF798FFAD
:1005F000A820FFF795FF3F20FFF792FFD320FFF7DA
:100600008FFF0020FFF78CFFD520FFF789FF8020A8
:10061000FFF786FFD920FFF783FFF120FFF780FF68
:10062000DA20FFF77DFF1220FFF77AFFDB20FFF7CC
:1006300077FF4020FFF774FF2020FFF771FF0220B3
:10064000FFF76EFF8D20FFF76BFF1420FFF768FFA9
:10065000A420FFF765FFA620FFF762FFAF20FFF79A
:100660005FFFAF20FFF75CFF0020FFF73AFF10BDF0
:1006700010B50446FFF7FEFE7820FFF7D1FE4020BC
:10068000FFF7CEFE2046FFF7CBFEFFF70DFF10BDB4
:100690007047000029B1064A92690243044B9A61EF
:1006A00004E0034A92698243014B9A61704700005B
:1006B00000100240704710B500F002F810BD0000B5
:1006C0000CB50020019000903348006840F4803061
:1006D0003149086000BF3048006800F400300090E5
:1006E0000198401C0190009818B90198B0F5A06FCE
:1006F000F1D12948006800F4003010B101200090C9
:1007000001E0002000900098012843D123480068B0
:1007100040F01000214908600846006820F00300FE
:1007200008600846006840F0020008601A48406807
:10073000194948600846406848600846406840F4E7
:10074000806048600846406820F47C104860084695
:10075000406840F4E81048600846006840F0807047
:10076000086000BF0C48006800F000700028F9D055
:100770000948406820F0030007494860084640687F
:1007800040F00200486000BF0348406800F00C00E1
:100790000828F9D10CBD00000010024000200240E2
:1007A00002480068401C014908607047140000209E
:1007B00030B54821481EB0F1807F01D301201BE0F5
:1007C000481E4FF0E022506150170F22002804DB32
:1007D00013071C0E0B4B1C5406E013071D0E0A4B8F
:1007E00000F00F04241F1D5500BF00204FF0E02231
:1007F0009061072010610020012801D100BFFEE7B1
:1008000030BD000000E400E018ED00E010B5134832
:10081000006840F00100114908600846406810492E
:1008200008400E494860084600680E4908400B49D8
:1008300008600846006820F4802008600846406888
:1008400020F4FE0048604FF41F008860FFF733FF7C
:100850004FF000600449086010BD00000010024025
:100860000000FFF8FFFFF6FE08ED00E010B540F2D3
:1008700025511D4800F03EF810B31B4800F064F805
:10088000C4B21A48008800F40040C8B9174800886C
:1008900000F4804060B10A2C03D000201349088086
:1008A00020E01248008840F400401049088019E018
:1008B0000D2C06D10D48008840F480400B4908807B
:1008C00010E00A480088C0F30D0009490C5407489D
:1008D0000088401C0549088008460088C72801DDBB
:1008E0000020088010BD000000380140CC16002018
:1008F000D016002070B502460024002300250020F9
:1009000040F66A16B14200D100BFC1F3421501F0B2
:100910001F03012606FA03F3012D02D19689334005
:1009200006E0022D02D1168A334001E0968A334058
:100930000C12012606FA04F41688344013B10CB1E7
:10094000012000E0002070BD01468888C0F3080047
:10095000704700BFFEE700BF704700000021044A57
:10096000116000BF024909688142FBD17047000055
:100970001400002088B00BA30FCBCDE90623CDE9EE
:1009800004010CA003C8CDE902010CA103C9CDE903
:100990000001FFF70DFFFFF70DFE01E000F06CF81E
:1009A000FCE700005468657265206973206F6E6C07
:1009B00079000000776F72642E00000051696E6745
:1009C0000000000038B504460D46002025490860A7
:1009D00043E0254800681030802816DD2348006871
:1009E000801C2249086000201F4908601F480068D9
:1009F00008280ADB1E48006800F580701C49086062
:100A000000201A490860FFF76CFD19480068B0F52E
:100A1000186F04DB002016490860FFF762FD1548D7
:100A20000068284412490968084400900E48037879
:100A30000E48027810210846FFF794FD0D48006823
:100A400020300C49086008480068103006490860EA
:100A500004480068401C0349086002480068A0423E
:100A6000B7DB38BD00000020080000200C0000208B
:100A7000100000200400002010B500200C49086080
:100A80000C4908600C4908600C490920FFF79AFFDF
:100A90000020074908600A490320FFF793FF002060
:100AA0000349086007494020FFF78CFF10BD000094
:100AB00004000020080000200C000020480D002049
:100AC000680E0020C80E0020E80A00080000002080
:100AD000D01600002801000868170008D016002072
:100AE000280700008C01000802A00001031DE0C0DF
:100AF000210228804C032E80807E100AF0FF3F33B5
:100B0000303030F0F005000510303C3C307F0007FD
:100B1000140103071EFCF09B4206014004C6FE3E82
:100B200009B004070704BB42180153F8F809B004E0
:100B30001F1F18FB2006781FE7E0C00113FFFF0509
:100B40000315F0F0EB000516FCFF7FFCC11008FE5A
:100B5000FC0C0C0F0F0C01000414FCFE0C232005F0
:100B6000FFFF7F60010310E0F8C74004FFFFFF2391
:100B700031910612C08C000815F0FF1F01001FFF05
:100B80009D5004FFFF600151440510E163FF7F2B7E
:100B9000C63FDA1008070602030303020123FFFF22
:100BA00006210DD5D13406E0F83F07018700061075
:100BB0000F3FFCF0C084817601148000051BC0FC4F
:100BC0003F07212963000412407F3F1743380E7C02
:100BD000690AE005070F07033B5B3F3F05E8050691
:100BE0003F3F10BB500460380FBE0C078C03073E1C
:100BF0001F0F037A0363C08001500584B8F0A00B77
:100C000086C06473FFFF21E005FFFE82802174042B
:100C1000C0FF1FA6A4067F0F011E709E540F403018
:100C20000C07414020201010080C0603463408032E
:100C3000070E1C1838102752100123F8F80F54041F
:100C4000FCF808F067E040B923F80801331F9F80E3
:100C50007009FFA0908884868381803B02073968F1
:100C600004FE3F02C0A00407186082640808101048
:100C700070301E0FA61C061808040202CC037C0666
:100C80000E1C0C08087C0410077C58484040C074B7
:100C900012400113FCF80D81801805601CFF111B28
:100CA000200DF07E47C0E04404444444FFFF052F7C
:100CB0000406E4032A0295117510040C30C0FE10DE
:100CC000040320240113FFFF056805263430205655
:100CD0001C073F004020100C15042C080C1818109D
:100CE0003030376A0411018927300580E03C18F95B
:100CF0005500540580C0E06000100920100804036E
:100D0000FFFF019A154617FFFF474602484AF8B30E
:100D100021B2334F4707500740FCFC43434201FCDC
:100D20000463634143050914DF0D1A7505B201011F
:100D30000D166E0525365D74051406E0FC0781C0AE
:100D4000454FC08323035C047FFF8336034EFFBC03
:100D50000414040107067A290EA13E796E460FAAF3
:100D60007C0580C17F3E8B0411854C040302067D07
:100D7000053804030704109F04068303C380C0B230
:100D8000ED0304A110217C1D29056608FE41BE5A11
:100D900040CD63FCFF574C0403FEF8F605420C6F90
:100DA0003BE17FE74004070708BE8D12048380C043
:100DB000404C0500F0FE0FA8043307FEB0533FFF80
:100DC0009C5E80F604370103007D0D0382C001257F
:100DD00000460E378004E0180661CFC0FC6F045552
:100DE00024014480053EC0017E80097B401C060230
:100DF000E222223E17051E8097042E86020310046D
:100E0000438242782C18FF402106081020400080C1
:100E100060F80708C838105454FF54547CE2042C7E
:100E20000EFF8049312F4849497F49494948DE032F
:100E30001FFC03D803100D7F88888482E000000423
:100E40000404050443FF0401ED880319182005106C
:100E5000888890E7180511202020911E301B051F5F
:100E6000887062083C06202121221C50054D180480
:100E70001C0520203F2081041EF03B051210591450
:100E80000601122222111B43E010101F0F109405BF
:100E9000111012183F3E688D083E3E5504E120E1D6
:100EA00070011E20011D902E08E00411051008207D
:100EB0003F210101213FA12D7C061DE7042E1F3992
:100EC00005F217BFF1107130462000FDE304AF5862
:100ED000389909100E04244484649C40300FC808DB
:100EE0000828E71C0810080601824C205D031C043A
:100EF000061820F4031C05404042CC760613040279
:100F0000042E04A0041C0E40201F20404F444240E9
:100F10007F42444383051137113B26FF2625F12CE0
:100F20001A21211111090503FF03050911112121BE
:100F3000004262524AC6425262C28E051D07061026
:100F40000640C444447FCB1C0620000F4080EF08BD
:100F50001C0E101014D4545454FC525252D312F19B
:100F6000061009404050575555557F042C045750E2
:100F700040E3051008FC0484848485F6051C048481
:100F800084042F0770040F80409F4380007813096A
:100F90000E801014284888080080814040212214C7
:100FA00008142241408081C021BF1409E2222A2A6C
:100FB000F22A2622B7141080403F4080FF89898999
:100FC000BF89A9C9BF8037310152FF082DED041D2B
:100FD0008A0630060300030C10601008403011969A
:100FE0009090910428069814135030804808040407
:100FF00044847E060580140B403C10FF1010201026
:101000008F78B511E31C0D020602FF010104422195
:10101000184681D706180F0002FE9292FE020010B9
:101020001116F01413DF17101F2D1C0B0481413112
:101030000D030D314181970A40060222428272055A
:101040002AFEFF2582260E87264E202F0070DC0701
:101050001D2905080710302824222130802405F896
:10106000888888791619EF200D110E00100C048461
:1010700014640506F4A81404140C003D1409444734
:1010800024140C070C14EA5604D0258A3EFE970758
:101090002D99091804108860B9363FA01009100C6A
:1010A0002424A46425260612243715901D8B034D95
:1010B0008D03374B48902139BDFD09FE335D0C6C23
:1010C000094020904824120904A40A480901020496
:1010D0000912244810B01790100E1DD1082ED0E030
:1010E000082D9D0717435CF62F4C43A2072D8B0458
:1010F00016FDFB15FF2F55FDCF03480D8090884549
:101100004F55252525554D45D92F00FC430814067C
:101110002222222322B0190C4C040700FED10725FD
:101120003F051ED01D7D031807FF4848000848B240
:101130002DBF063C108165080720C0080423C003AA
:101140000023C40F90041600B43292043D0D0B1519
:10115000A34C0A1232121F123A42827E1F0729EF55
:101160007C0508F90204FF0715F33C050121412124
:10117000000741EC6F902031074720100C6DCE0521
:101180001DAE0920040C0A09464DA00863FF410169
:101190002D610C338082016C07E2A2928A8682A6BE
:1011A0000D3D2A036DBA0D21A12C081CE00106009B
:1011B000E01EF70421A11D12033804130C13B01D07
:1011C00068051A8E1212FF041B8888C01DC5041DF5
:1011D000D00911A11F020470051D60042C0DC8B8B0
:1011E0008FE8888810885724548CFD091DE0041D61
:1011F0004D052601431EFE40051C07080889EA1814
:101200008867051DEF032DF0031DBF092404FF01AE
:1012100086661E403B0321BF1C05011210F2AE037F
:101220004804F21212B01D02042C080F0909097FAC
:101230000444D0031C060484C4B48CCE054DCF05F1
:1012400058091000804428182728422E483F0A10C9
:1012500007484848C8487F042A48501C041008869C
:10126000D30341E21C04020418CF041EF1700310E2
:101270000A0827F4A4A4A4F42404EF1E1F28040CD5
:101280000A1F10905F3212325F9010D004140820B1
:1012900030AC63300080BD15C31DC0031C0D226738
:1012A00022121200221448847F041504116013D006
:1012B000FF472F42E29704140640C0000403402079
:1012C0000823108C43201847E11E403C041C04F402
:1012D0000210D5032AF0A51C0D00084482413F806E
:1012E000601C03003F44082E788F041809FC08E8AE
:1012F0009FE8884048481D000514040F040F441D52
:101300009006480513225A86301D6C0E45C659407A
:101310001D570A49963DF004100712D2525F52F24F
:10132000044FD212E10B2B9F525E2C0432529FB419
:101330000A155723F20205140700FC162584FC7DCC
:101340003382FF0538051013125280ED7C0D9C048A
:101350001824242C0F1D600B1FA4FE1A0329672DCF
:1013600090042DD0051AFF2D1DE6033F10106009D3
:1013700019CE340622C202C232BE256019A2100D57
:101380000C030C30000F3040F80002FAB71F802029
:101390006E04180623202830602058054884443FF6
:1013A000A51D3C0C1C07040424C40F04C40B2C040E
:1013B000A46F2400051DD8043C09080620924A2782
:1013C000124ED9071D71051C074242C27E42C266F9
:1013D0000B2DCF035D7F03353E1E4087072D910403
:1013E00071017E04B00361013DA90F522201295F02
:1013F0001E80F1052DF20E0C0613020242827FF6CA
:1014000010CDD0061C05008088464C0C1C070F1020
:10141000102824426F081C058080484644082C068A
:101420000708102846D005400620104C475401CF2D
:10143000D404841015004EF07008280910121212FE
:10144000FE111111C010078040211C0405011C056C
:101450007D818180410626FEE71C0920A464A43F0B
:101460002464A440081C0EFF040807808944462B0E
:10147000122A4680D0051C0600021E6282700D6C86
:101480000482720E3D0B3C0820110A040A1120024E
:101490000CC280010D11C3101DEE064EFCF50D1D92
:1014A000590675B8AF0106050409180010047A4AF8
:1014B0007E021E7A130527826240140E2455857D14
:1014C0000515A4601F0403043FE04DC0043DC104A2
:1014D0003DA0091C08010141615149477E041C04DB
:1014E0005161C100041C044030CF080816203E3C66
:1014F00004E32428B1052C0E7F201020110D41811A
:101500007F01050931BF051A92B01C06FE12315148
:1015100091C9051D7709400400FF490122FF0D1DF7
:1015200036041F846F3B041805E4048F44212E0009
:101530007C041D55082C04043F41440C6E78600463
:1015400051DF4E106004A206DF1C0DFE8A4A2A0AF3
:101550004A4A4AFA4A4A4E6F0E0C0F1F300F0804CF
:10156000FE81824E5223524A8680D0081012018199
:101570005D35155FF555555F5555DD410100113E4F
:101580001C0501A097BD50062FB597800A0D1DB010
:10159000081C071060028C2018920A12CF292A9882
:1015A000F02F7E0140051DB00A25C328040004E485
:1015B000FB11E01E2FC80E1AE4C11C06FF00112209
:1015C0001C56082C0509094989B0073D27092D6BD0
:1015D0000E4EFFD0064C040F0404710B6D7F112DCD
:1015E000B1071DB2073C07FF08090AC808800318A5
:1015F0000410201F661C0516182641240912F81A2B
:101600001C0AF82010FC4B48F94A48D8071C050F63
:1016100000FF08E70708081FFF22223F22222000C0
:101620004DFF033F807016061D2F083DFF031D630D
:10163000058E0ED0091C0B4458C0407F40C0504856
:101640004680052DF0081D42075DA1034E78210458
:101650004D71034DE8073C0580402319E4061C0446
:101660000913202A0C1D40074808C8380C0B08082D
:10167000E8422D20062E40BD062E7FC7061640E00C
:101680001005E8292E281D3C05C80C0BE8020C4665
:10169000FF19660FE176F00D4D65131DF60A3DFB4F
:1016A0000A3D1F052DA8135E927E073D7F071F4050
:1016B000404B101D330A31060F204040000421BA70
:1016C0002C068242F20E4285032DD00A3D7A072D68
:1016D00085054F0102F7135D9D056E82C80835A987
:1016E00025B14140170CC0DE2E2402091AE4C01CAB
:1016F0000402027FC20759FF2550100A88E91AC068
:1017000024147F1420041F244080071C07FF01427B
:101710002415456603130515105E807D075E804025
:10172000071F1038F7092C0414183028072D4F0C08
:101730003DD0117AFFFF2D10052C04442417550AC3
:101740003E17A009311E3A90251C0BFF88A81800EF
:101750000444827F0105070C081F80432C102C4392
:08176000800006610100000099
:04000005080000ED02
:00000001FF
