:020000040800F2
:10000000680600208901000809050008C3030008EC
:1000100005050008A7020008C90800080000000044
:1000200000000000000000000000000011070008B0
:10003000AB02000800000000ED060008FD07000804
:10004000A3010008A3010008A3010008A301000800
:10005000A3010008A3010008A3010008A3010008F0
:10006000A3010008A3010008A3010008A3010008E0
:10007000A3010008A3010008A3010008A3010008D0
:10008000A3010008A3010008A3010008A3010008C0
:10009000A3010008A3010008A3010008A3010008B0
:1000A000A3010008A3010008A3010008A3010008A0
:1000B000A3010008A3010008A3010008A301000890
:1000C000A3010008A3010008A3010008A301000880
:1000D000A3010008A3010008A3010008A301000870
:1000E000A3010008A3010008A301000800F002F822
:1000F00000F03AF80AA090E8000C82448344AAF188
:100100000107DA4501D100F02FF8AFF2090EBAE885
:100110000F0013F0010F18BFFB1A43F0010318473B
:10012000440E0000640E0000103A24BF78C878C165
:10013000FAD8520724BF30C830C144BF04680C60ED
:10014000704700000023002400250026103A28BF35
:1001500078C1FBD8520728BF30C148BF0B60704739
:100160001FB51FBD10B510BD00F063F81146FFF7B5
:10017000F7FF00F0B7FB00F081F803B4FFF7F2FFE0
:1001800003BC00F089F8000009488047094800478F
:10019000FEE7FEE7FEE7FEE7FEE7FEE7FEE7FEE737
:1001A000FEE7FEE704480549054A064B7047000094
:1001B00069080008ED0000086800002068060020BB
:1001C000680200206802002010B5203AC0F00B80C1
:1001D000B1E81850203AA0E81850B1E81850A0E84B
:1001E0001850BFF4F5AF5FEA027C24BFB1E81850A5
:1001F000A0E8185044BF18C918C0BDE810405FEA15
:10020000827C24BF51F8043B40F8043B08BF704790
:10021000D20728BF31F8023B48BF11F8012B28BF95
:1002200020F8023B48BF00F8012B70477047704729
:100230007047754600F02CF8AE46050069465346F7
:1002400020F00700854618B020B5FFF7ABFFBDE8EA
:1002500020404FF000064FF000074FF000084FF02D
:10026000000B21F00701AC46ACE8C009ACE8C009BE
:10027000ACE8C009ACE8C0098D46704710B504462B
:10028000AFF300802046BDE81040FFF776BF0000C6
:10029000004870470400002001491820ABBEFEE76B
:1002A00026000200704700BFFEE770472DE9F041CD
:1002B000024600250026002000230024002791F894
:1002C00003C00CF00F0591F803C00CF0100CBCF14A
:1002D000000F03D091F802C04CEA050591F800C068
:1002E000BCF1000F31D0146800202BE04FF0010C5E
:1002F0000CFA00F3B1F800C00CEA03069E4220D1CC
:1003000083004FF00F0C0CFA03F7BC4305FA03FC13
:100310004CEA040491F803C0BCF1280F06D14FF059
:10032000010C0CFA00FCC2F814C00AE091F803C0FA
:10033000BCF1480F05D14FF0010C0CFA00FCC2F8DB
:1003400010C0401C0828D1D31460B1F800C0BCF123
:10035000FF0F34DD546800202EE000F1080C4FF050
:10036000010808FA0CF3B1F800C00CEA03069E423B
:1003700021D183004FF00F0C0CFA03F7BC4305FAB0
:1003800003FC4CEA040491F803C0BCF1280F05D12A
:1003900000F1080C08FA0CF8C2F8148091F803C0B8
:1003A000BCF1480F07D100F1080C4FF0010808FA22
:1003B0000CF8C2F81080401C0828CED35460BDE869
:1003C000F08100BFFEE7000008B50121042000F025
:1003D0008FF910208DF803004020ADF800000320B5
:1003E0008DF8020069460848FFF760FF14208DF879
:1003F00003008020ADF8000003208DF8020069465C
:100400000148FFF753FF08BD0008014010B5012067
:100410000B490860052000F059FA00200949C1F88D
:100420009801052000F052FA01200649C1F8980110
:100430000846D0F81C0108B1012010BD0020FCE7DF
:100440009C0121420000214270B50446002500BFF6
:100450001AE000201049086004F0800018B1012063
:10046000091D086003E000200B49091D08606006B3
:10047000040E052000F02AFA012007490860052033
:1004800000F024FA681CC5B2082DE2DB0020024906
:100490000860FFF7BBFF70BD9801214210B5012035
:1004A000094908600949C1F89C01052000F00EFACD
:1004B00000200549091D0860052000F007FA00200A
:1004C0000249C1F8980110BD980121420000214263
:1004D00010B500200949086001200949C1F89C01B4
:1004E000052000F0F3F9012004490860052000F020
:1004F000EDF900200249C1F89C0110BD980121428C
:100500000000214200BFFEE7704770B50646002498
:10051000002500BF15E004F1B001C8B200F014F8E6
:10052000002000F011F8102000F00EF8002504E083
:10053000304600F0CBF8681CC5B2802DF8DB601C9B
:10054000C4B2082CE7DB70BD10B50446FFF7A6FF68
:100550007820FFF779FF0020FFF776FF2046FFF7AE
:1005600073FFFFF7B5FF10BD70B505460C4605F1EA
:10057000B001C8B2FFF7E8FF102101EB1410FFF73C
:10058000E3FF04F00F00FFF7DFFF70BD2DE9F0413E
:10059000064688461746A7F12000C5B2002441460A
:1005A0003046FFF7E1FF00BF07E004EB05110E4AFC
:1005B000505C00F08BF8601CC4B2082CF5DB711C99
:1005C000C8B24146FFF7D0FF002409E0082101EB43
:1005D00005112144044A505C00F078F8601CC4B254
:1005E000082CF3DBBDE8F0817409000870B50646FD
:1005F0000D46144608E0227829463046FFF7C6FF2C
:1006000005F10800C5B2641C20780028F3D170BD44
:1006100010B5FFF7D9FEAE20FFF796FF0220FFF7D7
:1006200093FF1020FFF790FF4020FFF78DFF812000
:10063000FFF78AFFCF20FFF787FFA120FFF784FF96
:10064000C820FFF781FFA620FFF77EFFA820FFF755
:100650007BFF3F20FFF778FFD320FFF775FF0020D7
:10066000FFF772FFD520FFF76FFF8020FFF76CFFC9
:10067000D920FFF769FFF120FFF766FFDA20FFF7C7
:1006800063FF1220FFF760FFDB20FFF75DFF4020D4
:10069000FFF75AFF2020FFF757FF0220FFF754FF14
:1006A0008D20FFF751FF1420FFF74EFFA420FFF726
:1006B0004BFFA620FFF748FFAF20FFF745FFAF2015
:1006C000FFF742FF0020FFF720FF10BD10B50446E2
:1006D000FFF7E4FE7820FFF7B7FE4020FFF7B4FEF7
:1006E0002046FFF7B1FEFFF7F3FE10BD7047000094
:1006F00029B1064A92690243044B9A6104E0034A15
:1007000092698243014B9A617047000000100240D9
:10071000704710B500F002F810BD00000CB50020C5
:10072000019000903348006840F4803031490860FF
:1007300000BF3048006800F4003000900198401C71
:100740000190009818B90198B0F5A06FF1D129482F
:10075000006800F4003010B10120009001E000209A
:1007600000900098012843D12348006840F0100011
:10077000214908600846006820F003000860084628
:10078000006840F0020008601A4840681949486053
:100790000846406848600846406840F48060486009
:1007A0000846406820F47C1048600846406840F4E1
:1007B000E81048600846006840F08070086000BF9C
:1007C0000C48006800F000700028F9D00948406823
:1007D00020F00300074948600846406840F00200E6
:1007E000486000BF0348406800F00C000828F9D1B9
:1007F0000CBD0000001002400020024002480068CA
:10080000401C0149086070470000002030B5A82155
:10081000481EB0F1807F01D301201BE0481E4FF03D
:10082000E022506150170F22002807DA13071D0E2F
:100830000B4B00F00F04241F1D5503E013071C0E83
:10084000084B1C5400BF00204FF0E02290610720AD
:1008500010610020012801D100BFFEE730BD00007B
:1008600018ED00E000E400E010B51348006840F027
:1008700001001149086008464068104908400E49C7
:100880004860084600680E4908400B490860084661
:10089000006820F4802008600846406820F4FE00CC
:1008A00048604FF41F008860FFF733FF4FF000608F
:1008B0000449086010BD0000001002400000FFF86D
:1008C000FFFFF6FE08ED00E000BFFEE70021044A4E
:1008D000116000BF024909688142FBD170470000E6
:1008E000000000208EB0142215A109A8FFF76CFCAF
:1008F00018A30FCBCDE90723CDE9050119A003C843
:10090000CDE9030119A103C9CDE90101FFF77EFF7C
:10091000FFF77EFE09AA00210846FFF767FE05AA39
:1009200000210220FFF762FE03AA00210420FFF746
:100930005DFE01AA50210620FFF758FE00BFFEE72A
:100940005468657265206973206E6F206C75636BE7
:10095000000000005468657265206973206F6E6C3A
:1009600079000000776F72642E00000051696E6795
:100970000000000000000000000000000000000077
:1009800000000000000000F800000000000000333C
:100990003000000000100C06100C060000000000E3
:1009A0000000000040C07840C0784000043F0404CC
:1009B0003F040400007088FC08300000001820FF8D
:1009C000211E0000F008F000E018000000211C03C8
:1009D0001E211E0000F00888700000001E21232444
:1009E000192721100002020400000000000000008E
:1009F00000000000000000E01804020000000007F2
:100A00001820400000020418E000000000402018F8
:100A100007000000404080F0804040000202010FCB
:100A200001020200000000F0000000000101011FAF
:100A300001010100000000000000000080B0700013
:100A400000000000000000000000000000010101A3
:100A50000101010100000000000000000030300032
:100A6000000000000000000080601804006018060C
:100A70000100000000E010080810E000000F102046
:100A800020100F00001010F8000000000020203F90
:100A9000202000000070080808887000003028241A
:100AA00022213000003008888848300000182020BB
:100AB00020110E000000C02010F8000000070424E0
:100AC000243F240000F80888880808000019212025
:100AD00020110E0000E0108888180000000F11207F
:100AE00020110E0000380808C83808000000003F38
:100AF000000000000070880808887000001C222197
:100B000021221C0000E010080810E0000000312243
:100B100022110F00000000C0C000000000000030E3
:100B20003000000000000080000000000000806035
:100B300000000000000080402010080000010204B6
:100B4000081020004040404040404000040404049D
:100B50000404040000081020408000000020100859
:100B600004020100007048080808F000000000308E
:100B700036010000C030C828E810E000071827241C
:100B800023140B000000C038E0000000203C2302CA
:100B90000227382008F8888888700000203F20202D
:100BA00020110E00C030080808083800071820205F
:100BB0002010080008F808080810E000203F202056
:100BC00020100F0008F88888E8081000203F202037
:100BD0002320180008F88888E8081000203F20002B
:100BE00003000000C0300808083800000718202063
:100BF000221E020008F808000008F808203F210122
:100C000001213F20000808F8080800000020203FCC
:100C10002020000000000808F8080800C08080803C
:100C20007F00000008F888C028180800203F200135
:100C30002638200008F8080000000000203F20208F
:100C40002020300008F8F800F8F80800203F003FA6
:100C5000003F200008F830C00008F808203F2000BE
:100C600007183F00E01008080810E0000F102020CF
:100C700020100F0008F808080808F000203F2101A4
:100C800001010000E01008080810E0000F182424FB
:100C900038504F0008F8888888887000203F20006E
:100CA000030C302000708808080838000038202124
:100CB00021221C00180808F8080818000000203F2E
:100CC0002000000008F808000008F808001F202095
:100CD00020201F000878880000C838080000073866
:100CE0000E010000F80800F80008F800033C0700B7
:100CF000073C0300081868808068180820302C031F
:100D0000032C30200838C800C83808000000203FF5
:100D10002000000010080808C838080020382621E4
:100D200020201800000000FE020202000000007FE8
:100D300040404000000C30C00000000000000001F6
:100D40000638C00000020202FE00000000404040E1
:100D50007F00000000000402020204000000000006
:100D60000000000000000000000000008080808083
:100D70008080808010160E0000000000000000003F
:100D80000000000000008080808000000019242204
:100D900022223F2008F8008080000000003F112040
:100DA00020110E000000008080800000000E112045
:100DB00020201100000000808088F800000E112023
:100DC00020103F200000808080800000001F222231
:100DD00022221300008080F0888888180020203F9D
:100DE000202000000000808080808000006B9494B0
:100DF0009493600008F8008080800000203F21006C
:100E000000203F2000809898000000000020203F34
:100E100020200000000000809898000000C0808022
:100E2000807F000008F8000080808000203F2402BE
:100E30002D302000000808F8000000000020203FAE
:100E4000202000008080808080808000203F200063
:100E50003F20003F8080008080800000203F2100F4
:100E600000203F200000808080800000001F2020A4
:100E700020201F00808000808000000080FFA120D3
:100E800020110E000000008080808000000E1120E4
:100E900020A0FF80808080008080800020203F2173
:100EA0002000010000008080808080000033242426
:100EB00024241900008080E0808000000000001FD2
:100EC000202000008080000000808000001F202083
:100ED00020103F20808080000080808000010E3044
:100EE0000806010080800080008080800F300C03A5
:100EF0000C300F0000808000808080000020312EA8
:100F00000E312000808080000080808080818E7083
:100F10001806010000808080808080000021302C35
:100F20002221300000000000807C0202000000004E
:100F3000003F404000000000FF00000000000000F3
:100F4000FF0000000002027C800000000040403FE3
:100F5000000000000006010102020404000000007D
:100F600000000000840F00080000002004000000C2
:100F700028010008880F0008040000206406000013
:080F800044010008000000001C
:04000005080000ED02
:00000001FF
